{
  "_format": "hh-sol-artifact-1",
  "contractName": "TinderPortal",
  "sourceName": "contracts/WavePortal.sol",
  "abi": [
    {
      "anonymous": false,
      "inputs": [
        {
          "indexed": false,
          "internalType": "uint256",
          "name": "userId",
          "type": "uint256"
        },
        {
          "indexed": false,
          "internalType": "string",
          "name": "name",
          "type": "string"
        },
        {
          "indexed": false,
          "internalType": "uint256",
          "name": "magicNum",
          "type": "uint256"
        }
      ],
      "name": "NewMatch",
      "type": "event"
    },
    {
      "inputs": [
        {
          "internalType": "string",
          "name": "_str",
          "type": "string"
        }
      ],
      "name": "_generateRandomMagicNum",
      "outputs": [
        {
          "internalType": "uint256",
          "name": "",
          "type": "uint256"
        }
      ],
      "stateMutability": "view",
      "type": "function"
    },
    {
      "inputs": [
        {
          "internalType": "string",
          "name": "_name",
          "type": "string"
        }
      ],
      "name": "createRandomMatch",
      "outputs": [],
      "stateMutability": "nonpayable",
      "type": "function"
    },
    {
      "inputs": [
        {
          "internalType": "uint256",
          "name": "",
          "type": "uint256"
        }
      ],
      "name": "users",
      "outputs": [
        {
          "internalType": "string",
          "name": "name",
          "type": "string"
        },
        {
          "internalType": "uint256",
          "name": "magicNum",
          "type": "uint256"
        }
      ],
      "stateMutability": "view",
      "type": "function"
    }
  ],
  "bytecode": "0x60806040526003600055600054600a6200001a91906200008c565b6001553480156200002a57600080fd5b506200020f565b6000808291508390505b600185111562000083578086048111156200005b576200005a620001d3565b5b60018516156200006b5780820291505b80810290506200007b8562000202565b94506200003b565b94509492505050565b60006200009982620001c9565b9150620000a683620001c9565b9250620000d57fffffffffffffffffffffffffffffffffffffffffffffffffffffffffffffffff8484620000dd565b905092915050565b600082620000ef5760019050620001c2565b81620000ff5760009050620001c2565b8160018114620001185760028114620001235762000159565b6001915050620001c2565b60ff841115620001385762000137620001d3565b5b8360020a915084821115620001525762000151620001d3565b5b50620001c2565b5060208310610133831016604e8410600b8410161715620001935782820a9050838111156200018d576200018c620001d3565b5b620001c2565b620001a2848484600162000031565b92509050818404811115620001bc57620001bb620001d3565b5b81810290505b9392505050565b6000819050919050565b7f4e487b7100000000000000000000000000000000000000000000000000000000600052601160045260246000fd5b60008160011c9050919050565b6107ec806200021f6000396000f3fe608060405234801561001057600080fd5b50600436106100415760003560e01c80632cac99b514610046578063365b98b2146100765780634b0e6d29146100a7575b600080fd5b610060600480360381019061005b91906103be565b6100c3565b60405161006d91906104e8565b60405180910390f35b610090600480360381019061008b91906103ff565b610108565b60405161009e9291906104b8565b60405180910390f35b6100c160048036038101906100bc91906103be565b6101c4565b005b600080826040516020016100d791906104a1565b6040516020818303038152906040528051906020012060001c90506001548161010091906106a1565b915050919050565b6002818154811061011857600080fd5b906000526020600020906002020160009150905080600001805461013b9061063e565b80601f01602080910402602001604051908101604052809291908181526020018280546101679061063e565b80156101b45780601f10610189576101008083540402835291602001916101b4565b820191906000526020600020905b81548152906001019060200180831161019757829003601f168201915b5050505050908060010154905082565b60006101cf826100c3565b90506101db82826101df565b5050565b60026040518060400160405280848152602001838152509080600181540180825580915050600190039060005260206000209060020201600090919091909150600082015181600001908051906020019061023b92919061029e565b506020820151816001015550506000600160028054905061025c91906105be565b90507f72be65b3ce0fbd9d4236edc02b641f91c8f38c86a929237fa42826c45738dfc681848460405161029193929190610503565b60405180910390a1505050565b8280546102aa9061063e565b90600052602060002090601f0160209004810192826102cc5760008555610313565b82601f106102e557805160ff1916838001178555610313565b82800160010185558215610313579182015b828111156103125782518255916020019190600101906102f7565b5b5090506103209190610324565b5090565b5b8082111561033d576000816000905550600101610325565b5090565b600061035461034f84610566565b610541565b90508281526020810184848401111561036c57600080fd5b6103778482856105fc565b509392505050565b600082601f83011261039057600080fd5b81356103a0848260208601610341565b91505092915050565b6000813590506103b88161079f565b92915050565b6000602082840312156103d057600080fd5b600082013567ffffffffffffffff8111156103ea57600080fd5b6103f68482850161037f565b91505092915050565b60006020828403121561041157600080fd5b600061041f848285016103a9565b91505092915050565b600061043382610597565b61043d81856105a2565b935061044d81856020860161060b565b6104568161078e565b840191505092915050565b600061046c82610597565b61047681856105b3565b935061048681856020860161060b565b80840191505092915050565b61049b816105f2565b82525050565b60006104ad8284610461565b915081905092915050565b600060408201905081810360008301526104d28185610428565b90506104e16020830184610492565b9392505050565b60006020820190506104fd6000830184610492565b92915050565b60006060820190506105186000830186610492565b818103602083015261052a8185610428565b90506105396040830184610492565b949350505050565b600061054b61055c565b90506105578282610670565b919050565b6000604051905090565b600067ffffffffffffffff8211156105815761058061075f565b5b61058a8261078e565b9050602081019050919050565b600081519050919050565b600082825260208201905092915050565b600081905092915050565b60006105c9826105f2565b91506105d4836105f2565b9250828210156105e7576105e66106d2565b5b828203905092915050565b6000819050919050565b82818337600083830152505050565b60005b8381101561062957808201518184015260208101905061060e565b83811115610638576000848401525b50505050565b6000600282049050600182168061065657607f821691505b6020821081141561066a57610669610730565b5b50919050565b6106798261078e565b810181811067ffffffffffffffff821117156106985761069761075f565b5b80604052505050565b60006106ac826105f2565b91506106b7836105f2565b9250826106c7576106c6610701565b5b828206905092915050565b7f4e487b7100000000000000000000000000000000000000000000000000000000600052601160045260246000fd5b7f4e487b7100000000000000000000000000000000000000000000000000000000600052601260045260246000fd5b7f4e487b7100000000000000000000000000000000000000000000000000000000600052602260045260246000fd5b7f4e487b7100000000000000000000000000000000000000000000000000000000600052604160045260246000fd5b6000601f19601f8301169050919050565b6107a8816105f2565b81146107b357600080fd5b5056fea2646970667358221220fbeb59463340010282b3c40e163af414a41685d828cb5c4f15baf91ad1ff7bba64736f6c63430008040033",
  "linkReferences": {},
  "deployedLinkReferences": {}
}